{
  "_format": "hh-sol-artifact-1",
  "contractName": "LeavingATip",
  "sourceName": "contracts/LeavingATip.sol",
  "abi": [
    {
      "inputs": [],
      "stateMutability": "nonpayable",
      "type": "constructor"
    },
    {
      "anonymous": false,
      "inputs": [
        {
          "indexed": false,
          "internalType": "address",
          "name": "previousAdmin",
          "type": "address"
        },
        {
          "indexed": false,
          "internalType": "address",
          "name": "newAdmin",
          "type": "address"
        }
      ],
      "name": "AdminChanged",
      "type": "event"
    },
    {
      "anonymous": false,
      "inputs": [
        {
          "indexed": true,
          "internalType": "address",
          "name": "beacon",
          "type": "address"
        }
      ],
      "name": "BeaconUpgraded",
      "type": "event"
    },
    {
      "anonymous": false,
      "inputs": [
        {
          "indexed": false,
          "internalType": "uint8",
          "name": "version",
          "type": "uint8"
        }
      ],
      "name": "Initialized",
      "type": "event"
    },
    {
      "anonymous": false,
      "inputs": [
        {
          "indexed": false,
          "internalType": "address",
          "name": "",
          "type": "address"
        },
        {
          "indexed": false,
          "internalType": "address",
          "name": "",
          "type": "address"
        },
        {
          "indexed": false,
          "internalType": "string",
          "name": "",
          "type": "string"
        },
        {
          "indexed": false,
          "internalType": "uint256",
          "name": "",
          "type": "uint256"
        }
      ],
      "name": "Leave",
      "type": "event"
    },
    {
      "anonymous": false,
      "inputs": [
        {
          "indexed": true,
          "internalType": "address",
          "name": "previousOwner",
          "type": "address"
        },
        {
          "indexed": true,
          "internalType": "address",
          "name": "newOwner",
          "type": "address"
        }
      ],
      "name": "OwnershipTransferred",
      "type": "event"
    },
    {
      "anonymous": false,
      "inputs": [
        {
          "indexed": false,
          "internalType": "address",
          "name": "",
          "type": "address"
        },
        {
          "indexed": false,
          "internalType": "string",
          "name": "",
          "type": "string"
        },
        {
          "indexed": false,
          "internalType": "address",
          "name": "",
          "type": "address"
        }
      ],
      "name": "Take",
      "type": "event"
    },
    {
      "anonymous": false,
      "inputs": [
        {
          "indexed": true,
          "internalType": "address",
          "name": "implementation",
          "type": "address"
        }
      ],
      "name": "Upgraded",
      "type": "event"
    },
    {
      "inputs": [
        {
          "internalType": "address",
          "name": "tokenAddress",
          "type": "address"
        }
      ],
      "name": "addSupportedTokenAddress",
      "outputs": [],
      "stateMutability": "nonpayable",
      "type": "function"
    },
    {
      "inputs": [
        {
          "internalType": "address",
          "name": "tokenAddress",
          "type": "address"
        },
        {
          "internalType": "string",
          "name": "id",
          "type": "string"
        }
      ],
      "name": "getAmountOfTip",
      "outputs": [
        {
          "internalType": "uint256",
          "name": "_tip",
          "type": "uint256"
        }
      ],
      "stateMutability": "view",
      "type": "function"
    },
    {
      "inputs": [
        {
          "internalType": "address[]",
          "name": "_tokenAddresses",
          "type": "address[]"
        }
      ],
      "name": "initialize",
      "outputs": [],
      "stateMutability": "nonpayable",
      "type": "function"
    },
    {
      "inputs": [
        {
          "internalType": "address",
          "name": "tokenAddress",
          "type": "address"
        },
        {
          "internalType": "string",
          "name": "id",
          "type": "string"
        }
      ],
      "name": "isCompleted",
      "outputs": [
        {
          "internalType": "bool",
          "name": "_isCompleted",
          "type": "bool"
        }
      ],
      "stateMutability": "view",
      "type": "function"
    },
    {
      "inputs": [
        {
          "internalType": "address",
          "name": "tokenAddress",
          "type": "address"
        }
      ],
      "name": "isSupportedTokenAddress",
      "outputs": [
        {
          "internalType": "bool",
          "name": "",
          "type": "bool"
        }
      ],
      "stateMutability": "view",
      "type": "function"
    },
    {
      "inputs": [
        {
          "internalType": "address",
          "name": "tokenAddress",
          "type": "address"
        },
        {
          "internalType": "address",
          "name": "from",
          "type": "address"
        },
        {
          "internalType": "string",
          "name": "_id",
          "type": "string"
        },
        {
          "internalType": "uint256",
          "name": "_tip",
          "type": "uint256"
        }
      ],
      "name": "leave",
      "outputs": [],
      "stateMutability": "nonpayable",
      "type": "function"
    },
    {
      "inputs": [],
      "name": "owner",
      "outputs": [
        {
          "internalType": "address",
          "name": "",
          "type": "address"
        }
      ],
      "stateMutability": "view",
      "type": "function"
    },
    {
      "inputs": [],
      "name": "proxiableUUID",
      "outputs": [
        {
          "internalType": "bytes32",
          "name": "",
          "type": "bytes32"
        }
      ],
      "stateMutability": "view",
      "type": "function"
    },
    {
      "inputs": [],
      "name": "renounceOwnership",
      "outputs": [],
      "stateMutability": "nonpayable",
      "type": "function"
    },
    {
      "inputs": [
        {
          "internalType": "address",
          "name": "tokenAddress",
          "type": "address"
        },
        {
          "internalType": "string",
          "name": "id",
          "type": "string"
        },
        {
          "internalType": "address",
          "name": "to",
          "type": "address"
        }
      ],
      "name": "take",
      "outputs": [],
      "stateMutability": "nonpayable",
      "type": "function"
    },
    {
      "inputs": [
        {
          "internalType": "address",
          "name": "newOwner",
          "type": "address"
        }
      ],
      "name": "transferOwnership",
      "outputs": [],
      "stateMutability": "nonpayable",
      "type": "function"
    },
    {
      "inputs": [
        {
          "internalType": "address",
          "name": "newImplementation",
          "type": "address"
        }
      ],
      "name": "upgradeTo",
      "outputs": [],
      "stateMutability": "nonpayable",
      "type": "function"
    },
    {
      "inputs": [
        {
          "internalType": "address",
          "name": "newImplementation",
          "type": "address"
        },
        {
          "internalType": "bytes",
          "name": "data",
          "type": "bytes"
        }
      ],
      "name": "upgradeToAndCall",
      "outputs": [],
      "stateMutability": "payable",
      "type": "function"
    }
  ],
  "bytecode": "0x60a06040523073ffffffffffffffffffffffffffffffffffffffff1660809073ffffffffffffffffffffffffffffffffffffffff168152503480156200004457600080fd5b50620000556200005b60201b60201c565b62000206565b600060019054906101000a900460ff1615620000ae576040517f08c379a0000000000000000000000000000000000000000000000000000000008152600401620000a590620001a9565b60405180910390fd5b60ff801660008054906101000a900460ff1660ff161015620001205760ff6000806101000a81548160ff021916908360ff1602179055507f7f26b83ff96e1f2b6a682f133852f6798a09c465da95921460cefb384740249860ff604051620001179190620001e9565b60405180910390a15b565b600082825260208201905092915050565b7f496e697469616c697a61626c653a20636f6e747261637420697320696e69746960008201527f616c697a696e6700000000000000000000000000000000000000000000000000602082015250565b60006200019160278362000122565b91506200019e8262000133565b604082019050919050565b60006020820190508181036000830152620001c48162000182565b9050919050565b600060ff82169050919050565b620001e381620001cb565b82525050565b6000602082019050620002006000830184620001d8565b92915050565b608051612cd66200023e60003960008181610725015281816107b4015281816108ae0152818161093d01526109ed0152612cd66000f3fe6080604052600436106100c25760003560e01c80638da5cb5b1161007f5780639d981838116100595780639d98183814610245578063a224cee71461026e578063cd31035414610297578063f2fde38b146102d4576100c2565b80638da5cb5b146101b4578063907eacef146101df5780639578fecf1461021c576100c2565b80631d4bc0a4146100c75780633659cfe6146100f05780634f1ef2861461011957806352d1902d146101355780636fa8e14314610160578063715018a61461019d575b600080fd5b3480156100d357600080fd5b506100ee60048036038101906100e99190611a35565b6102fd565b005b3480156100fc57600080fd5b5061011760048036038101906101129190611abd565b610723565b005b610133600480360381019061012e9190611c2b565b6108ac565b005b34801561014157600080fd5b5061014a6109e9565b6040516101579190611ca0565b60405180910390f35b34801561016c57600080fd5b5061018760048036038101906101829190611cbb565b610aa2565b6040516101949190611d36565b60405180910390f35b3480156101a957600080fd5b506101b2610b73565b005b3480156101c057600080fd5b506101c9610b87565b6040516101d69190611d60565b60405180910390f35b3480156101eb57600080fd5b5061020660048036038101906102019190611cbb565b610bb1565b6040516102139190611d8a565b60405180910390f35b34801561022857600080fd5b50610243600480360381019061023e9190611abd565b610c75565b005b34801561025157600080fd5b5061026c60048036038101906102679190611da5565b610cd8565b005b34801561027a57600080fd5b5061029560048036038101906102909190611edc565b610fcd565b005b3480156102a357600080fd5b506102be60048036038101906102b99190611abd565b611157565b6040516102cb9190611d36565b60405180910390f35b3480156102e057600080fd5b506102fb60048036038101906102f69190611abd565b6111ad565b005b846001151560c960008373ffffffffffffffffffffffffffffffffffffffff1673ffffffffffffffffffffffffffffffffffffffff16815260200190815260200160002060009054906101000a900460ff16151514610391576040517f08c379a000000000000000000000000000000000000000000000000000000000815260040161038890611f82565b60405180910390fd5b6000869050600083116103d9576040517f08c379a00000000000000000000000000000000000000000000000000000000081526004016103d090611fee565b60405180910390fd5b60008173ffffffffffffffffffffffffffffffffffffffff1663dd62ed3e33306040518363ffffffff1660e01b815260040161041692919061200e565b60206040518083038186803b15801561042e57600080fd5b505afa158015610442573d6000803e3d6000fd5b505050506040513d601f19601f82011682018060405250810190610466919061204c565b9050838110156104ab576040517f08c379a00000000000000000000000000000000000000000000000000000000081526004016104a2906120eb565b60405180910390fd5b60008273ffffffffffffffffffffffffffffffffffffffff166370a08231336040518263ffffffff1660e01b81526004016104e69190611d60565b60206040518083038186803b1580156104fe57600080fd5b505afa158015610512573d6000803e3d6000fd5b505050506040513d601f19601f82011682018060405250810190610536919061204c565b90508481101561057b576040517f08c379a00000000000000000000000000000000000000000000000000000000081526004016105729061217d565b60405180910390fd5b600060405180606001604052808b73ffffffffffffffffffffffffffffffffffffffff1681526020018781526020016000151581525090508060ca89896040516105c69291906121cd565b908152602001604051809103902060008201518160000160006101000a81548173ffffffffffffffffffffffffffffffffffffffff021916908373ffffffffffffffffffffffffffffffffffffffff1602179055506020820151816001015560408201518160020160006101000a81548160ff0219169083151502179055509050508373ffffffffffffffffffffffffffffffffffffffff166323b872dd8a30896040518463ffffffff1660e01b8152600401610685939291906121e6565b602060405180830381600087803b15801561069f57600080fd5b505af11580156106b3573d6000803e3d6000fd5b505050506040513d601f19601f820116820180604052508101906106d79190612249565b507f3a02bab66cf8c5061ca19ee18188ece53d94908f31763c65538d02dd1944e1ee8a8a8a8a8a60405161070f9594939291906122a3565b60405180910390a150505050505050505050565b7f000000000000000000000000000000000000000000000000000000000000000073ffffffffffffffffffffffffffffffffffffffff163073ffffffffffffffffffffffffffffffffffffffff1614156107b2576040517f08c379a00000000000000000000000000000000000000000000000000000000081526004016107a990612363565b60405180910390fd5b7f000000000000000000000000000000000000000000000000000000000000000073ffffffffffffffffffffffffffffffffffffffff166107f1611231565b73ffffffffffffffffffffffffffffffffffffffff1614610847576040517f08c379a000000000000000000000000000000000000000000000000000000000815260040161083e906123f5565b60405180910390fd5b61085081611288565b6108a981600067ffffffffffffffff81111561086f5761086e611b00565b5b6040519080825280601f01601f1916602001820160405280156108a15781602001600182028036833780820191505090505b506000611293565b50565b7f000000000000000000000000000000000000000000000000000000000000000073ffffffffffffffffffffffffffffffffffffffff163073ffffffffffffffffffffffffffffffffffffffff16141561093b576040517f08c379a000000000000000000000000000000000000000000000000000000000815260040161093290612363565b60405180910390fd5b7f000000000000000000000000000000000000000000000000000000000000000073ffffffffffffffffffffffffffffffffffffffff1661097a611231565b73ffffffffffffffffffffffffffffffffffffffff16146109d0576040517f08c379a00000000000000000000000000000000000000000000000000000000081526004016109c7906123f5565b60405180910390fd5b6109d982611288565b6109e582826001611293565b5050565b60007f000000000000000000000000000000000000000000000000000000000000000073ffffffffffffffffffffffffffffffffffffffff163073ffffffffffffffffffffffffffffffffffffffff1614610a79576040517f08c379a0000000000000000000000000000000000000000000000000000000008152600401610a7090612487565b60405180910390fd5b7f360894a13ba1a3210667c828492db98dca3e2076cc3735a920a3ca505d382bbc60001b905090565b6000836001151560c960008373ffffffffffffffffffffffffffffffffffffffff1673ffffffffffffffffffffffffffffffffffffffff16815260200190815260200160002060009054906101000a900460ff16151514610b38576040517f08c379a0000000000000000000000000000000000000000000000000000000008152600401610b2f90611f82565b60405180910390fd5b60ca8484604051610b4a9291906121cd565b908152602001604051809103902060020160009054906101000a900460ff169150509392505050565b610b7b611410565b610b85600061148e565b565b6000603360009054906101000a900473ffffffffffffffffffffffffffffffffffffffff16905090565b6000836001151560c960008373ffffffffffffffffffffffffffffffffffffffff1673ffffffffffffffffffffffffffffffffffffffff16815260200190815260200160002060009054906101000a900460ff16151514610c47576040517f08c379a0000000000000000000000000000000000000000000000000000000008152600401610c3e90611f82565b60405180910390fd5b60ca8484604051610c599291906121cd565b9081526020016040518091039020600101549150509392505050565b610c7d611410565b600160c960008373ffffffffffffffffffffffffffffffffffffffff1673ffffffffffffffffffffffffffffffffffffffff16815260200190815260200160002060006101000a81548160ff02191690831515021790555050565b836001151560c960008373ffffffffffffffffffffffffffffffffffffffff1673ffffffffffffffffffffffffffffffffffffffff16815260200190815260200160002060009054906101000a900460ff16151514610d6c576040517f08c379a0000000000000000000000000000000000000000000000000000000008152600401610d6390611f82565b60405180910390fd5b6000859050600060ca8686604051610d859291906121cd565b90815260200160405180910390209050600081600101541415610dab57610daa6124a7565b5b600015158160020160009054906101000a900460ff16151514610e03576040517f08c379a0000000000000000000000000000000000000000000000000000000008152600401610dfa90612522565b60405180910390fd5b60008273ffffffffffffffffffffffffffffffffffffffff166370a08231306040518263ffffffff1660e01b8152600401610e3e9190611d60565b60206040518083038186803b158015610e5657600080fd5b505afa158015610e6a573d6000803e3d6000fd5b505050506040513d601f19601f82011682018060405250810190610e8e919061204c565b90508160010154811015610ed7576040517f08c379a0000000000000000000000000000000000000000000000000000000008152600401610ece9061217d565b60405180910390fd5b8273ffffffffffffffffffffffffffffffffffffffff1663a9059cbb8684600101546040518363ffffffff1660e01b8152600401610f16929190612542565b602060405180830381600087803b158015610f3057600080fd5b505af1158015610f44573d6000803e3d6000fd5b505050506040513d601f19601f82011682018060405250810190610f689190612249565b5060018260020160006101000a81548160ff0219169083151502179055507fdd599856a99e45b8bbdee581e36d1584eb87945679a764a33b024ef583c2fced88888888604051610fbb949392919061256b565b60405180910390a15050505050505050565b60008060019054906101000a900460ff16159050808015610ffe5750600160008054906101000a900460ff1660ff16105b8061102b575061100d30611554565b15801561102a5750600160008054906101000a900460ff1660ff16145b5b61106a576040517f08c379a00000000000000000000000000000000000000000000000000000000081526004016110619061261d565b60405180910390fd5b60016000806101000a81548160ff021916908360ff16021790555080156110a7576001600060016101000a81548160ff0219169083151502179055505b6110af611577565b6110b76115d0565b60005b82518110156110f9576110e68382815181106110d9576110d861263d565b5b6020026020010151610c75565b80806110f19061269b565b9150506110ba565b5080156111535760008060016101000a81548160ff0219169083151502179055507f7f26b83ff96e1f2b6a682f133852f6798a09c465da95921460cefb3847402498600160405161114a9190612736565b60405180910390a15b5050565b600060c960008373ffffffffffffffffffffffffffffffffffffffff1673ffffffffffffffffffffffffffffffffffffffff16815260200190815260200160002060009054906101000a900460ff169050919050565b6111b5611410565b600073ffffffffffffffffffffffffffffffffffffffff168173ffffffffffffffffffffffffffffffffffffffff161415611225576040517f08c379a000000000000000000000000000000000000000000000000000000000815260040161121c906127c3565b60405180910390fd5b61122e8161148e565b50565b600061125f7f360894a13ba1a3210667c828492db98dca3e2076cc3735a920a3ca505d382bbc60001b611621565b60000160009054906101000a900473ffffffffffffffffffffffffffffffffffffffff16905090565b611290611410565b50565b6112bf7f4910fdfa16fed3260ed0e7147f7cc6da11a60208b5b9406d12a635614ffd914360001b61162b565b60000160009054906101000a900460ff16156112e3576112de83611635565b61140b565b8273ffffffffffffffffffffffffffffffffffffffff166352d1902d6040518163ffffffff1660e01b815260040160206040518083038186803b15801561132957600080fd5b505afa92505050801561135a57506040513d601f19601f82011682018060405250810190611357919061280f565b60015b611399576040517f08c379a0000000000000000000000000000000000000000000000000000000008152600401611390906128ae565b60405180910390fd5b7f360894a13ba1a3210667c828492db98dca3e2076cc3735a920a3ca505d382bbc60001b81146113fe576040517f08c379a00000000000000000000000000000000000000000000000000000000081526004016113f590612940565b60405180910390fd5b5061140a8383836116ee565b5b505050565b61141861171a565b73ffffffffffffffffffffffffffffffffffffffff16611436610b87565b73ffffffffffffffffffffffffffffffffffffffff161461148c576040517f08c379a0000000000000000000000000000000000000000000000000000000008152600401611483906129ac565b60405180910390fd5b565b6000603360009054906101000a900473ffffffffffffffffffffffffffffffffffffffff16905081603360006101000a81548173ffffffffffffffffffffffffffffffffffffffff021916908373ffffffffffffffffffffffffffffffffffffffff1602179055508173ffffffffffffffffffffffffffffffffffffffff168173ffffffffffffffffffffffffffffffffffffffff167f8be0079c531659141344cd1fd0a4f28419497f9722a3daafe3b4186f6b6457e060405160405180910390a35050565b6000808273ffffffffffffffffffffffffffffffffffffffff163b119050919050565b600060019054906101000a900460ff166115c6576040517f08c379a00000000000000000000000000000000000000000000000000000000081526004016115bd90612a3e565b60405180910390fd5b6115ce611722565b565b600060019054906101000a900460ff1661161f576040517f08c379a000000000000000000000000000000000000000000000000000000000815260040161161690612a3e565b60405180910390fd5b565b6000819050919050565b6000819050919050565b61163e81611554565b61167d576040517f08c379a000000000000000000000000000000000000000000000000000000000815260040161167490612ad0565b60405180910390fd5b806116aa7f360894a13ba1a3210667c828492db98dca3e2076cc3735a920a3ca505d382bbc60001b611621565b60000160006101000a81548173ffffffffffffffffffffffffffffffffffffffff021916908373ffffffffffffffffffffffffffffffffffffffff16021790555050565b6116f783611783565b6000825111806117045750805b156117155761171383836117d2565b505b505050565b600033905090565b600060019054906101000a900460ff16611771576040517f08c379a000000000000000000000000000000000000000000000000000000000815260040161176890612a3e565b60405180910390fd5b61178161177c61171a565b61148e565b565b61178c81611635565b8073ffffffffffffffffffffffffffffffffffffffff167fbc7cd75a20ee27fd9adebab32041f755214dbc6bffa90cc0225b39da2e5c2d3b60405160405180910390a250565b60606117dd83611554565b61181c576040517f08c379a000000000000000000000000000000000000000000000000000000000815260040161181390612b62565b60405180910390fd5b6000808473ffffffffffffffffffffffffffffffffffffffff16846040516118449190612bfc565b600060405180830381855af49150503d806000811461187f576040519150601f19603f3d011682016040523d82523d6000602084013e611884565b606091505b50915091506118ac8282604051806060016040528060278152602001612c7a602791396118b6565b9250505092915050565b606083156118c6578290506118d1565b6118d083836118d8565b5b9392505050565b6000825111156118eb5781518083602001fd5b806040517f08c379a000000000000000000000000000000000000000000000000000000000815260040161191f9190612c57565b60405180910390fd5b6000604051905090565b600080fd5b600080fd5b600073ffffffffffffffffffffffffffffffffffffffff82169050919050565b60006119678261193c565b9050919050565b6119778161195c565b811461198257600080fd5b50565b6000813590506119948161196e565b92915050565b600080fd5b600080fd5b600080fd5b60008083601f8401126119bf576119be61199a565b5b8235905067ffffffffffffffff8111156119dc576119db61199f565b5b6020830191508360018202830111156119f8576119f76119a4565b5b9250929050565b6000819050919050565b611a12816119ff565b8114611a1d57600080fd5b50565b600081359050611a2f81611a09565b92915050565b600080600080600060808688031215611a5157611a50611932565b5b6000611a5f88828901611985565b9550506020611a7088828901611985565b945050604086013567ffffffffffffffff811115611a9157611a90611937565b5b611a9d888289016119a9565b93509350506060611ab088828901611a20565b9150509295509295909350565b600060208284031215611ad357611ad2611932565b5b6000611ae184828501611985565b91505092915050565b600080fd5b6000601f19601f8301169050919050565b7f4e487b7100000000000000000000000000000000000000000000000000000000600052604160045260246000fd5b611b3882611aef565b810181811067ffffffffffffffff82111715611b5757611b56611b00565b5b80604052505050565b6000611b6a611928565b9050611b768282611b2f565b919050565b600067ffffffffffffffff821115611b9657611b95611b00565b5b611b9f82611aef565b9050602081019050919050565b82818337600083830152505050565b6000611bce611bc984611b7b565b611b60565b905082815260208101848484011115611bea57611be9611aea565b5b611bf5848285611bac565b509392505050565b600082601f830112611c1257611c1161199a565b5b8135611c22848260208601611bbb565b91505092915050565b60008060408385031215611c4257611c41611932565b5b6000611c5085828601611985565b925050602083013567ffffffffffffffff811115611c7157611c70611937565b5b611c7d85828601611bfd565b9150509250929050565b6000819050919050565b611c9a81611c87565b82525050565b6000602082019050611cb56000830184611c91565b92915050565b600080600060408486031215611cd457611cd3611932565b5b6000611ce286828701611985565b935050602084013567ffffffffffffffff811115611d0357611d02611937565b5b611d0f868287016119a9565b92509250509250925092565b60008115159050919050565b611d3081611d1b565b82525050565b6000602082019050611d4b6000830184611d27565b92915050565b611d5a8161195c565b82525050565b6000602082019050611d756000830184611d51565b92915050565b611d84816119ff565b82525050565b6000602082019050611d9f6000830184611d7b565b92915050565b60008060008060608587031215611dbf57611dbe611932565b5b6000611dcd87828801611985565b945050602085013567ffffffffffffffff811115611dee57611ded611937565b5b611dfa878288016119a9565b93509350506040611e0d87828801611985565b91505092959194509250565b600067ffffffffffffffff821115611e3457611e33611b00565b5b602082029050602081019050919050565b6000611e58611e5384611e19565b611b60565b90508083825260208201905060208402830185811115611e7b57611e7a6119a4565b5b835b81811015611ea45780611e908882611985565b845260208401935050602081019050611e7d565b5050509392505050565b600082601f830112611ec357611ec261199a565b5b8135611ed3848260208601611e45565b91505092915050565b600060208284031215611ef257611ef1611932565b5b600082013567ffffffffffffffff811115611f1057611f0f611937565b5b611f1c84828501611eae565b91505092915050565b600082825260208201905092915050565b7f5468697320746f6b656e206973206e6f7420737570706f727465642e00000000600082015250565b6000611f6c601c83611f25565b9150611f7782611f36565b602082019050919050565b60006020820190508181036000830152611f9b81611f5f565b9050919050565b7f5469702073686f75642062652067726561746572207468616e20302e00000000600082015250565b6000611fd8601c83611f25565b9150611fe382611fa2565b602082019050919050565b6000602082019050818103600083015261200781611fcb565b9050919050565b60006040820190506120236000830185611d51565b6120306020830184611d51565b9392505050565b60008151905061204681611a09565b92915050565b60006020828403121561206257612061611932565b5b600061207084828501612037565b91505092915050565b7f7765277265206e6f7420616c6c6f77656420746f207472616e7366657220746860008201527f65207370656369666965642074697020616d6f756e742e000000000000000000602082015250565b60006120d5603783611f25565b91506120e082612079565b604082019050919050565b60006020820190508181036000830152612104816120c8565b9050919050565b7f546865726520697320696e73756666696369656e7420616d6f756e74206f662060008201527f746970207468617420796f752073656e642e0000000000000000000000000000602082015250565b6000612167603283611f25565b91506121728261210b565b604082019050919050565b600060208201905081810360008301526121968161215a565b9050919050565b600081905092915050565b60006121b4838561219d565b93506121c1838584611bac565b82840190509392505050565b60006121da8284866121a8565b91508190509392505050565b60006060820190506121fb6000830186611d51565b6122086020830185611d51565b6122156040830184611d7b565b949350505050565b61222681611d1b565b811461223157600080fd5b50565b6000815190506122438161221d565b92915050565b60006020828403121561225f5761225e611932565b5b600061226d84828501612234565b91505092915050565b60006122828385611f25565b935061228f838584611bac565b61229883611aef565b840190509392505050565b60006080820190506122b86000830188611d51565b6122c56020830187611d51565b81810360408301526122d8818587612276565b90506122e76060830184611d7b565b9695505050505050565b7f46756e6374696f6e206d7573742062652063616c6c6564207468726f7567682060008201527f64656c656761746563616c6c0000000000000000000000000000000000000000602082015250565b600061234d602c83611f25565b9150612358826122f1565b604082019050919050565b6000602082019050818103600083015261237c81612340565b9050919050565b7f46756e6374696f6e206d7573742062652063616c6c6564207468726f7567682060008201527f6163746976652070726f78790000000000000000000000000000000000000000602082015250565b60006123df602c83611f25565b91506123ea82612383565b604082019050919050565b6000602082019050818103600083015261240e816123d2565b9050919050565b7f555550535570677261646561626c653a206d757374206e6f742062652063616c60008201527f6c6564207468726f7567682064656c656761746563616c6c0000000000000000602082015250565b6000612471603883611f25565b915061247c82612415565b604082019050919050565b600060208201905081810360008301526124a081612464565b9050919050565b7f4e487b7100000000000000000000000000000000000000000000000000000000600052600160045260246000fd5b7f6861766520616c72656164792074616b656e207469702e000000000000000000600082015250565b600061250c601783611f25565b9150612517826124d6565b602082019050919050565b6000602082019050818103600083015261253b816124ff565b9050919050565b60006040820190506125576000830185611d51565b6125646020830184611d7b565b9392505050565b60006060820190506125806000830187611d51565b8181036020830152612593818587612276565b90506125a26040830184611d51565b95945050505050565b7f496e697469616c697a61626c653a20636f6e747261637420697320616c72656160008201527f647920696e697469616c697a6564000000000000000000000000000000000000602082015250565b6000612607602e83611f25565b9150612612826125ab565b604082019050919050565b60006020820190508181036000830152612636816125fa565b9050919050565b7f4e487b7100000000000000000000000000000000000000000000000000000000600052603260045260246000fd5b7f4e487b7100000000000000000000000000000000000000000000000000000000600052601160045260246000fd5b60006126a6826119ff565b91507fffffffffffffffffffffffffffffffffffffffffffffffffffffffffffffffff8214156126d9576126d861266c565b5b600182019050919050565b6000819050919050565b600060ff82169050919050565b6000819050919050565b600061272061271b612716846126e4565b6126fb565b6126ee565b9050919050565b61273081612705565b82525050565b600060208201905061274b6000830184612727565b92915050565b7f4f776e61626c653a206e6577206f776e657220697320746865207a65726f206160008201527f6464726573730000000000000000000000000000000000000000000000000000602082015250565b60006127ad602683611f25565b91506127b882612751565b604082019050919050565b600060208201905081810360008301526127dc816127a0565b9050919050565b6127ec81611c87565b81146127f757600080fd5b50565b600081519050612809816127e3565b92915050565b60006020828403121561282557612824611932565b5b6000612833848285016127fa565b91505092915050565b7f45524331393637557067726164653a206e657720696d706c656d656e7461746960008201527f6f6e206973206e6f742055555053000000000000000000000000000000000000602082015250565b6000612898602e83611f25565b91506128a38261283c565b604082019050919050565b600060208201905081810360008301526128c78161288b565b9050919050565b7f45524331393637557067726164653a20756e737570706f727465642070726f7860008201527f6961626c65555549440000000000000000000000000000000000000000000000602082015250565b600061292a602983611f25565b9150612935826128ce565b604082019050919050565b600060208201905081810360008301526129598161291d565b9050919050565b7f4f776e61626c653a2063616c6c6572206973206e6f7420746865206f776e6572600082015250565b6000612996602083611f25565b91506129a182612960565b602082019050919050565b600060208201905081810360008301526129c581612989565b9050919050565b7f496e697469616c697a61626c653a20636f6e7472616374206973206e6f74206960008201527f6e697469616c697a696e67000000000000000000000000000000000000000000602082015250565b6000612a28602b83611f25565b9150612a33826129cc565b604082019050919050565b60006020820190508181036000830152612a5781612a1b565b9050919050565b7f455243313936373a206e657720696d706c656d656e746174696f6e206973206e60008201527f6f74206120636f6e747261637400000000000000000000000000000000000000602082015250565b6000612aba602d83611f25565b9150612ac582612a5e565b604082019050919050565b60006020820190508181036000830152612ae981612aad565b9050919050565b7f416464726573733a2064656c65676174652063616c6c20746f206e6f6e2d636f60008201527f6e74726163740000000000000000000000000000000000000000000000000000602082015250565b6000612b4c602683611f25565b9150612b5782612af0565b604082019050919050565b60006020820190508181036000830152612b7b81612b3f565b9050919050565b600081519050919050565b600081905092915050565b60005b83811015612bb6578082015181840152602081019050612b9b565b83811115612bc5576000848401525b50505050565b6000612bd682612b82565b612be08185612b8d565b9350612bf0818560208601612b98565b80840191505092915050565b6000612c088284612bcb565b915081905092915050565b600081519050919050565b6000612c2982612c13565b612c338185611f25565b9350612c43818560208601612b98565b612c4c81611aef565b840191505092915050565b60006020820190508181036000830152612c718184612c1e565b90509291505056fe416464726573733a206c6f772d6c6576656c2064656c65676174652063616c6c206661696c6564a26469706673582212209c4a00522474d6e955d468b26b14ba82bbc6dacbc4b613983cc73be5422d79a664736f6c63430008090033",
  "linkReferences": {},
  "deployedLinkReferences": {}
}